:020000040800F2
:10000000300800201502000841340008C12D000806
:100010003D340008590F0008593400080000000062
:100020000000000000000000000000004D34000847
:100030005D0F00080000000049340008513400083A
:100040002F0200082F0200082F0200082F020008CC
:100050002F0200082F020008610F0008AD0F0008F2
:10006000C90F0008F50F0008211000082F02000832
:100070002F0200082F0200082F0200082F0200089C
:100080002F0200082F0200082F0200082F0200088C
:100090002F0200082F0200082F0200082F0200087C
:1000A0002F0200082F0200082F0200082F0200086C
:1000B0002F0200082F0200082F0200082F0200085C
:1000C0002F0200082F0200082F0200082F0200084C
:1000D0002F0200082F0200082F0200082F0200083C
:1000E0002F0200082F0200082F02000800F002F87B
:1000F00000F080F814A696E8000CB244B344DA4548
:1001000001D100F077F8BAE80F000FA696E83000AA
:10011000A5EB040504EB0607AAEB0704A7F101070A
:100120004FEA15154FEA3414A4F10104AC4201D38F
:1001300000F060F813F0010F18BFFB1A43F0010341
:1001400000F001F8DBE718472848000048480000A5
:10015000103A24BF78C878C1FAD8520724BF30C8F3
:1001600030C144BF04680C60704700007047000055
:100170000023002400250026103A28BF78C1FBD8B0
:10018000520728BF30C148BF0B607047662904F092
:100190006A83692900F0D680642900F0D38075292C
:1001A00000F0D0806F2900F06781782900F08E81FF
:1001B0000368DB0928BF41F08001632900F007854F
:1001C000732900F00C85E32900F0178500207047A3
:1001D0001FB500F04BFD04000020002104F072F870
:1001E000401C60600020002104F056F8E0601FBD54
:1001F00010B510BD00F03AFE1146FFF7E9FF03F01D
:100200008DF900F058FE03B4FFF7F2FF03BC00F0D5
:100210009BFE00000948804709480047FEE7FEE7CB
:10022000FEE7FEE7FEE7FEE7FEE7FEE7FEE7FEE7A6
:1002300004480549054A064B70470000553400083C
:10024000ED000008300200203008002030040020BB
:10025000300400200FB41CB5084B06AA7B44694645
:100260000090059800F091FC04460020694600F0DB
:100270009FFC20461CBC5DF814FB000051090000E7
:1002800070B5044685690068C10601D5302600E0D6
:100290002026C00707D070BDD4E901213046904721
:1002A000206A401C20626D1EF6D570BD70B50446F4
:1002B00085690078C00707D170BDD4E901212020ED
:1002C0009047206A401C20626D1EF6D570BD0968FB
:1002D0004A0501D540B27047C905FCD500B2704748
:1002E00009684A0501D5C0B27047C905FCD580B27E
:1002F000704770B50C460546012A05D0287880065F
:1003000000D5EA69002302E0012305E05B1C93426B
:1003100002D2E05C0028F9D1A869E618C01AA861E9
:10032000286A184428622846FFF7AAFF04E0D5E9A6
:10033000012114F8010B9047B442F8D32846FFF787
:10034000B5FF70BD2DE9F0410646002410687529FF
:10035000314616A510D0FFF7BAFF002802DA404256
:1003600013A507E031688A0701D512A502E0490705
:1003700004D511A5012401E0FFF7B2FF00210A22F4
:1003800006F1240709E0B0FBF2FCB0FBF2F302FB3C
:100390001C00303078541846491C0028F3D12346FD
:1003A0002A463046BDE8F04100F083B90000000065
:1003B0002D0000002B000000200000002DE9FF5F51
:1003C00015468A460446DFF8AC80F8440027D8E991
:1003D00000103E46CDE9001010E03AF816106A46CB
:1003E00002A800F016FC411C07D02178890603D52D
:1003F000E269391891420DD80744761C20788006AE
:1004000002D5E069B84205DDAE42E6DB3AF81600F7
:100410000028E2D1A069C01BA0612046FFF730FF91
:10042000D8E90010CDE90010002017E03AF81810C4
:100430006A4602A800F0EDFBB0F1FF3F81460BD009
:1004400000250DF1080B05E0D4E901211BF805009A
:1004500090476D1C4D45F7D308F10100B04280462E
:10046000E4DB206A384420622046FFF71FFFBDE826
:10047000FF9F00009E44000070B5044621461068AE
:10048000FFF72EFF002104F1240505E000F007022C
:100490003032C0086A54491C0028F7D12068002374
:1004A00008A2050708D500F02000084304D0E06941
:1004B000012305A2401EE0612046BDE8704000F027
:1004C000F8B80000000000003000000070B50446DD
:1004D0000D4621461068FFF703FF2188090502D564
:1004E0000F4A7A4402E00E4A7A440E32002104F1A7
:1004F000240305E000F00F060009965D5E54491CD8
:100500000028F7D120780023000704D5702D02D0F1
:1005100009B1022311322046BDE8704000F0C9B88D
:100520008E4300002DE9F05F894604464FF0000A33
:10053000DFF874B1FB44C0F820A02046E16888478A
:10054000002874D0252806D0D4E901219047206ADC
:10055000401C2062F1E700265F462046E16888479C
:100560002028054607DB312D05D2781910F8200C1C
:1005700008B10643F1E7B00701D526F00406C4F838
:100580001CA00027C4F818A02A2D09D0284603F083
:100590007BFE38B304EB8708303DC8F8185019E0EB
:1005A00059F8041B204604EB87029161E1688847F3
:1005B000012F054618D1E069002820DA26F0200630
:1005C0001DE0D8F8180000EB800005EB4000303843
:1005D000C8F818002046E1688847054603F054FE35
:1005E0000028EED1012F0AD02E2D08D12046E16837
:1005F00088477F1C0546022F46F02006C4DBA06911
:10060000002803DA404246F00106A061F00701D05D
:1006100026F010066C2D0BD0682D09D04C2D39D04A
:100620006A2D35D0742D35D07A2D33D016E038E0D0
:10063000E1682F4620468847B842054609D16C2F0D
:1006400026D04FF48060E16806432046884705467F
:1006500004E06C2F1AD04FF4807006430DB3A5F15F
:100660004100192802D8203546F400664A4629463A
:10067000204626604E46FFF789FD80B101280BD049
:10068000F61D26F0070000F1080956E74020E4E7D0
:100690008020D8E70020D6E706F104094DE7284678
:1006A00052E7206ABDE8F09F64430000704770473E
:1006B00070472DE9F0470D4699469246044600F1F1
:1006C00024080168880604D5E06921F01001216042
:1006D00000E00120A84201DD471B00E00027A169DE
:1006E0007A1902EB0900081AA0612078C00602D42A
:1006F0002046FFF7C5FD002608E0D4E901211AF8DD
:1007000006009047206A401C761C20624E45F4DBB0
:100710002078C0060AD52046FFF7B2FD06E0D4E9EE
:10072000012130209047206A401C2062381EA7F12A
:100730000107F4DC07E0D4E9012118F8050090472F
:10074000206A401C2062281EA5F10105F3DC20462A
:10075000FFF7ACFD2078000602D50220BDE8F08747
:100760000120FBE72DE9FF4F0C461E464FF0FF37F7
:100770008BB0D2E90001DDF860800A908A46C1F3AF
:100780000A5505B93D46002108464FF00000BAF170
:10079000000F00F4400005DA00EB80004FF4400148
:1007A00001EA50004FEA9059B9F1010F00DDB94656
:1007B0000A9850EA4A000ED044F61050A5F2FF35D0
:1007C00045432F14B8F1000F1ED07542291E1EDDBF
:1007D000C9F100021CE0B8F1010F4FF0000001D098
:1007E000302103E0F24305E02154401CB042FBDB22
:1007F00030460022002121540B99C1F80880C1E93C
:1008000000200FB0BDE8F08FBD1B6D1CDEE74A462F
:1008100000DA694206A800F0B3FA06AB93E80700D5
:1008200003AB83E8070050460A9903F051F98DE8BD
:100830000700A0F500501F3800900398002D0ADD36
:1008400042F21F014A460844002303A90390684668
:1008500003F0BAFB09E0A0F500504A461F38002318
:1008600003A90390684603F0C4FB8DE80700000469
:10087000000C03D04FF0FF30410800E01046B8F103
:10088000000F03D00022009215461EE0751E05D40D
:1008900000F0F0F9303262556D1EF9D5B3460122F1
:1008A000084302D000227F1C04E02078302801D1C8
:1008B00000227F1E002A099784D01DE0112D07DA3F
:1008C00000F0D8F9303262556D1C50EA0102F5D1C2
:1008D000084302D00098C8B10EE00021681E05E070
:1008E000235C625C63542254401E491C8142F7DB46
:1008F000AB46A81B401E0990002004F80B000B9883
:10090000099AC0F80880C0E9002B7AE711264FF059
:10091000000857E72DE9F04F88460446D21D22F023
:10092000070191B0D1E90001CDE90A0103F098FC7B
:1009300002460B98C00F01D02D2007E020688107E8
:1009400001D52B2002E0202101EAC000032A0990F2
:1009500001D0072A05DB03464146204600F0D0F9C6
:100960000BE12078800601D5E06900E00620B8F1AF
:10097000650F814606D0B8F1660F18D0B8F1670F41
:1009800070D131E00020B9F1110F009001DB11238B
:1009900001E009F101030AAA01A90CA8FFF7E2FE90
:1009A000DDE90C70002609F10105834647E00120CE
:1009B0004B4600904FF000470AAA01A90CA8FFF788
:1009C000D1FEDDE90DB00C995D46002610B909F1A4
:1009D00001000D18B9EB050003D4C0F1FF3609F191
:1009E0000105A5EB09002BE0B9F1010F01DA4FF089
:1009F00001090020B9F1110F0090484601DD1123D3
:100A000000E003460AAA01A90CA8FFF7ABFEDDE946
:100A10000C704D4600268346207800070AD4AB456B
:100A200000DA5D4601A8012D04DD411911F8011C11
:100A3000302907D04F4502DA17F1040F04DA0120FC
:100A400082460FE06D1EEEE7002F02DCED1B3E44F8
:100A500003E0781CA84200DD7D1CB81B00F1010AF0
:100A60004FF000472078000703D4AA4501DB4FF080
:100A7000FF3A0021B7F1004F0DF143088DF8431004
:100A800024D002202B23002F01DA7F422D230A21BC
:100A9000021EA0F1010000DC5FB197FBF1FC97FBA7
:100AA000F1F201FB1C7C17460CF1300C08F801CD6B
:100AB000EEE7A8F1010003702188090501D5452161
:100AC00000E06521A0F1010800F8011C09980FA9B8
:100AD000A1EB0807FF1D00B10120411901EBEA70ED
:100AE000A1693844081A401EA0612078C00602D4CB
:100AF0002046FFF7C5FB099828B1D4E901219047AA
:100B0000206A401C20622078C00622D52046FFF7CC
:100B1000B7FB1EE0002E04DBB34502DD01A8805DBB
:100B200000E03020D4E901219047206A401C206277
:100B3000761CAAF101005FEA000A0AD100F096F8DB
:100B4000C0680168405CD4E901219047206A401CDC
:100B50002062281EA5F10105DCDC07E0D4E90121B3
:100B600018F8010B9047206A401C2062381EA7F13C
:100B70000107F3DC2046FFF799FB032011B041E6A3
:100B800001694A1C02610878704700B58FB0CDE951
:100B900001310021059105497944CDE90310114641
:100BA0006846FFF7BFFC0FB000BD0000E5FFFFFF88
:100BB0000A6802F8010B0A60704710B5436913B167
:100BC000AFF3008001E0FFF794FB012010BD127825
:100BD00000F124010A7000224A700122EDE7116839
:100BE0004FF0FF32E9E710B5436913B1AFF300806E
:100BF00001E0FFF7E3FB012010BD128800F12401A2
:100C000082840022C2840122EDE711684FF0FF3296
:100C1000E9E72DE9F04116460C46054600F01EF8BE
:100C2000036893F80101012807D0FF2C12D8185D42
:100C300080B101202C70BDE8F081D3F80701324665
:100C4000214603F20713C7182846BC46BDE8F04109
:100C5000002360474FF0FF30EDE7000010B500F0D3
:100C600005F8001D10BD00BF5D360000004870474C
:100C70003000002030B5B0F10A0271F100034FEAF4
:100C8000900E4EEA817EB0EB0E0061EB91014FEACF
:100C9000101E4EEA017E10EB0E0041EB11114FEADF
:100CA000102E4EEA016E10EB0E0041EB11214FEABF
:100CB000104E4EEA014E10EB0E0041EB1141401870
:100CC00041F100014FEAD00040EA41704FEAD10102
:100CD0004FEA810444EA907410EB800544EB010470
:100CE0006D1944EB0404521BA3414FF0000348BFAD
:100CF0000A3200D530BD401C41F1000130BD00007A
:100D00002DE9F0411F46044603260168072A01F435
:100D1000006004DB08B116A505E016A503E008B1E4
:100D200015A500E015A521F010002060A069C01EE7
:100D3000A0610FB1401EA0612046FFF7A1FA4FB19C
:100D4000D4E9012138469047206A401C2062C01C2B
:100D5000206206E0206AFAE7D4E9012115F8010BC8
:100D60009047761EF8D22046FFF7A0FABDE8F08142
:100D70004E414E006E616E00494E4600696E66003F
:100D80002DE9F047814616468AB0354878440DC8AB
:100D90008DE80D0032487844801C03AC0DC884E80F
:100DA0000D0041F69B300844372190FBF1F290FB97
:100DB000F1F5A5F1800501FB12041B3C02D564424C
:100DC000012000E00020DFF898A080460027FA44C8
:100DD000AAF1BE0A0EE0E0070AD03246684607EBE9
:100DE000470101230AEB810103F003F98DE80700B5
:100DF00064107F1C002CEED1194F7F44AE3F19E0E8
:100E0000E80715D007EB04100DF1180A90E80E0062
:100E10008AE80E00C068F04201D198190890324665
:100E2000012306A903A803F0E4F803AB83E8070055
:100E30006D10641C002DE3D14FF00103324669466A
:100E4000B8F1000F03A802D003F0BEF801E003F0F0
:100E5000D0F8C9E90001C9F808200AB0BDE8F08758
:100E60009C3B000000487047100000207546FFF7CB
:100E7000F9FFAE4605006946534620F00700854657
:100E800018B020B5FFF7D4F9BDE820404FF00006B8
:100E90004FF000074FF000084FF0000BAC46ACE8F5
:100EA000C009ACE8C009ACE8C009ACE8C00921F051
:100EB00007018D46704710B50446AFF30080204609
:100EC000BDE81040FFF79FB94FF0013C50F8042BEC
:100ED00051F8043B9A4221D1A2EB0C03934313EA4D
:100EE000CC1317D150F8042B51F8043B9A4215D17A
:100EF000A2EB0C03934313EACC130BD150F8042B51
:100F000051F8043B9A4209D1A2EB0C03934313EA34
:100F1000CC13DBD04FF00000704700BFD01A01BAED
:100F2000B1FA81F101F0180122FA01F0CB40DBB2F5
:100F3000C0B2C01AC1F120012CFA01F3D11A9143B9
:100F400011EAC311E6D1704701491820ABBEFEE794
:100F50002600020070470000FEE700007047000016
:100F6000B0B50120012400F081F940F27000C2F216
:100F70000000C16881F001020129C26004D1816AC8
:100F8000002484604C63046140F60045C4F201050E
:100F900028464FF48051224600F082FA28464FF44A
:100FA00000512246BDE8B04000F07ABA80B5022078
:100FB00000F05CF940F27000C2F20000016981F0BB
:100FC0000101016180BD000080B5042000F04EF9F0
:100FD00040F27000C2F20000016949B9C1680029FD
:100FE00008BF80BD01218160806A40F24D114163DC
:100FF00080BD000080B5082000F038F940F2700094
:10100000C2F20000016949B9C168002908BF80BD6A
:1010100002218160806A40F29A21416380BD000014
:1010200080B5102000F022F940F27000C2F20000FA
:10103000016949B9C168002908BF80BD03218160E9
:10104000806A40F2E731416380BD00009C46034660
:10105000C3E9031C0021428101606046596001F030
:10106000FBB800002DE9F04186B0418900250291CE
:1010700001210446C068CDE903150221059102A9AA
:101080008DF80450009500F0FDF8E06861890022B9
:1010900000F006FA142000F0D3F8E068618901221C
:1010A00000F0FEF920690068456200BF416A272907
:1010B00008D8416A272905D8416A272902D8416AF8
:1010C0002829F3D3EFF3108072B66189E0680291AA
:1010D00002210025059102A9CDE9035500F0D2F8BF
:1010E000E068618900F0D6F9012805D162B60220D6
:1010F000207206B0BDE8F08120690068456200BF3B
:1011000020690068406A632800F28280E068618993
:1011100000F0C0F90128F3D1206900210068416284
:1011200020690068406A632800F27880E06861897D
:1011300000F0B0F90028F3D1206900250068E846E6
:1011400000270026456200BF20690068406A6328C6
:101150006AD8E068618900F09DF90128F4D120691E
:1011600000684562E068618900F094F9012805D1C2
:1011700020690068406A6428F4D956E02069F9B211
:10118000006818F80120436A322B4FF0000388BF33
:10119000012343EA420208F80120711C4A0708BFF4
:1011A0000137272E0E46CDD362B69DF800009DF87C
:1011B00001709DF802609DF803503A189DF80410E4
:1011C00032442A448A4235D103F090F980463846A9
:1011D00003F08CF94CF6CD47C3F6CC57394603F0F3
:1011E00001FA414603F0B6F86060304603F07EF93C
:1011F0000646284603F07AF9394603F0F3F93146FA
:1012000003F0A8F820600020207206B0BDE8F0814D
:1012100062B60120207206B0BDE8F08162B60120FE
:10122000207206B0BDE8F08162B60120207206B0DF
:10123000BDE8F0810320207206B0BDE8F081000017
:10124000B0B5044600F032F9054640F20000C2F2A3
:1012500000000078611C18BF044400BF00F026F9AC
:10126000401BA042FAD3B0BD7047000040F21441C9
:10127000C4F201010A68024214BF08607047FFF718
:10128000F3BF00002DE9F04F82B00E68002E00F091
:10129000FD8041F20042C4F20102042340F2004EFC
:1012A000904208BF03234FF6FF7CC4F2010E009367
:1012B00000240123C1F2100C4FF0000A4FF0000986
:1012C0004BE000BF41F20002C4F20102009F9042D5
:1012D00008BF022704F00C030F229A402BEA0202F7
:1012E00007FA03F34FEA9A051A4346F825204E6899
:1012F00040F20C45F202DEF8082054BF22EA080250
:1013000042EA0802C4F20105CEF808202A68B302B6
:1013100054BF22EA080242EA08022A60B303DEF858
:10132000042054BF22EA080242EA0802F303CEF87E
:101330000420DEF800204FF0010354BF22EA080227
:1013400042EA0802CEF800200E680AF1010A36FAD5
:101350000AF204F1040400F0998003FA0AFB16EA89
:101360000B08F1D04E68664512DC122E56D8DFE825
:1013700006F0350B4D49555555555555555555554F
:1013800055555545510000BFD1F80C9046E000BFBF
:101390004FF6FF72C1F2210296420FDC0022C1F229
:1013A000110296421AD00022C1F21202964215D0C2
:1013B0000022C1F22102964210D02FE00022C1F299
:1013C000220296420AD00022C1F23102964205D092
:1013D0000022C1F23202964220D100BF8A684AB18F
:1013E000012A14BFC0F814B0C0F810B04FF00809BB
:1013F00014E000BF4FF0040910E000BFCA6802F11A
:1014000004090BE04FF0000908E000BFCA6802F1D0
:10141000080903E0CA6802F10C0900BF024626462B
:10142000B8F5807F24BF0432203E17680F25B540F1
:1014300027EA050509FA06F635431560CA79D2068A
:101440007FF582AF41F21803C4F202031A68AEF5C9
:101450007E7642F001021A601A6802F001020192DF
:10146000019A2AF0030256F802B040F60002C4F2D4
:101470000102904208D040F60042C4F201029042BC
:101480007FF420AF012725E7002723E702B0BDE85E
:10149000F08F00008068084018BF012070470000EE
:1014A000002A08BF090401617047000040F22820AB
:1014B000C2F2000000687047002804BF0120704796
:1014C000F0B581B0044690F83D0028B9002084F8BA
:1014D0003C00204600F090F9242084F83D0020686C
:1014E000016821F001010160016841F400410160DF
:1014F000016821F40041016000F050FB636848F28C
:10150000A16CC0F2010C40F60011C0F23D01634530
:101510003CBF48F28041C0F21E01884202D2012045
:1015200001B0F0BD4DF68361C4F21B31A0FB011286
:101530002168970CD1F804E04FF496762EF03F0521
:1015400045EA92454D60774348F638160D6AC0F279
:101550004106A7FB067625F03F07634538BF960C8A
:10156000721C3A430A62CA6948F2A0664CF6FF77D9
:10157000C0F20106B34222EA07020BD801385B0031
:10158000B0FBF3F001306FF31F30042898BF042044
:101590001BE000BFA768013857B119277B43B0FB98
:1015A000F3F001306FF31F3070B100F5804007E0B9
:1015B00003EB4303B0FBF3F001306FF31F3018B1BE
:1015C00000F5004001E000BF01201043C861086839
:1015D000D4E9072320F0C00010431843086088684E
:1015E00048F2FF3204F10C0790438CCF18431043AC
:1015F000A6698860C86820F0FF0038433043C8609F
:10160000086840F00100086000202021206484F870
:101610003D10206384F83E0001B0F0BD2DE9F04399
:1016200083B01E46174689460446FFF73FFF94F8ED
:101630003D10202924D10546206800BF8169890713
:101640001AD5FFF733FF411B20681A29F6D38169A9
:101650008907F3D500202021206384F83D1084F809
:101660003E00216C41F02001216484F83C000220FE
:1016700003B0BDE8F08300BF94F83C10012903D10A
:10168000022003B0BDE8F083012184F83C1001681A
:10169000C90703D1016841F001010160016840F20E
:1016A000020821F400610160212184F83D1010211D
:1016B00084F83E100021216467626685618DC0F266
:1016C00001082185A8F10211E162E16A0A9E11F583
:1016D000803F18BF01291DD1016841F4807101606C
:1016E00020464FF0011100223346009501F0C8FB5F
:1016F00050B120680068C00544BF4FF400702064FA
:10170000012003B0BDE8F0832069B0F5804F07D118
:10171000FE2015E00829DFD0216B1229DCD0DFE79D
:10172000062000EAD9102168F030086108F10601AE
:10173000204632462B4601F089FC0028E0D1FF20EC
:10174000216800EA090008612046414632462B46DE
:1017500001F07CFC0028D3D1002002902068416970
:10176000029180690290029806E000BF204631464F
:101770002A4601F027FB18BB208D68B3204631466E
:101780002A4601F0CFFCD8B9606A2168024612F8F7
:10179000013B0B616262628D013A6285228D531EAC
:1017A00023854F697F07E1D51B04DFD043780230E2
:1017B0000B616062608D01386085901E2085D5E7E1
:1017C000206C04289CD12068016841F400710160FC
:1017D000012003B0BDE8F0832068016841F4007186
:1017E0000160202084F83D00002084F83E0084F849
:1017F0003C0003B0BDE8F08310B586B0016845F247
:101800000040C4F2000081424FF00001CDE9041114
:10181000CDE9021102D006B010BD00BF41F218049C
:10182000C4F20204216800F5384041F0080121604B
:10183000216801F0080101910199C0210291122152
:1018400003910321059102A9FFF71CFD606840F494
:1018500000106060606800F400100190019806B00C
:1018600010BD000040F2000040F22821C2F200004A
:10187000C2F2000100780A68104408607047000056
:1018800080B542F20000C4F20200016841F010018C
:101890000160032000F08CF80F2000F005F800F044
:1018A00027F8002080BD000070B540F20006C2F2AB
:1018B000000640F208013278C2F200014FF47A7358
:1018C0000968B3FBF2F20446B1FBF2F1084600F0FE
:1018D0009BFB0F2C4FF0010508D838B94FF0FF30B3
:1018E00021460022002500F037F87460284670BDBC
:1018F00082B041F21800C4F202000168022241F0F5
:1019000001010160016801F0010101910199416843
:1019100041F080514160406800F080500090009894
:101920000420C4F20100016862F31A61016002B090
:1019300070470000002848BF704700F01F010122D7
:1019400002FA01F11C2202EAD0004EF20012CEF29D
:10195000000281507047000010B54EF60C5CCEF2CC
:10196000000CDCF80030C3F3022E8EF00704042CC8
:1019700028BF0424BEF103034FF0FF3E0EFA04F427
:1019800038BF0023A14399400EFA03F39A43114351
:1019900000F00F0200F160430901043A03F56443CB
:1019A0006244002848BF02F10C03197010BD00000A
:1019B0004EF60C51CEF200010A684FF6FF031A40B2
:1019C00060F30A2242F0806040F0FD7008607047CA
:1019D00070470000002804BF012070472DE9F04344
:1019E00081B042F20008C4F202080446D8F80000B0
:1019F0000D4600F0070081420CD9D8F8000020F015
:101A000007002843C8F80000D8F8000000F00700DD
:101A1000A8426CD1206841F204098107C4F202098E
:101A200017D5410705D5D9F8001041F4E061C9F890
:101A30000010010705D5D9F8001041F46051C9F82C
:101A40000010D9F80010A26821F0F0011143C9F884
:101A50000010C00742D1D8F8000000F0070085420E
:101A60000CD2D8F8000020F007002843C8F8000086
:101A7000D8F8000000F00700A84238D120684107DC
:101A800007D5D9F80010E26821F4E0611143C9F8E4
:101A90000010000708D5D9F80000216920F4605033
:101AA00040EAC100C9F80000D9F8002002F00C009B
:101AB000082841F20020C0F27A004DD144F65E13AE
:101AC000C2F38341C0F60003595CD20338D440F618
:101AD0000010C0F23D0048433EE000BF606859F886
:101AE000041C022808D0012826D1890306D401202D
:101AF00001B0BDE8F08300BF8901F8D5D9F8001026
:101B000021F003010843C9F80000FFF7CFFC0646A7
:101B100041F28837D9F80000616800F00C00B0EBA2
:101B2000810F98D0FFF7C2FC801BB842F2D9032086
:101B300001B0BDE8F08300BF8907D8D5DEE700BF5C
:101B4000D9F8002044F65C13C2F34042C0F600030B
:101B50009A5C4843B0FBF2F0D9F8001044F6441206
:101B6000C1F30311C0F60002515C40F2080220FAF2
:101B700001F140F20400C2F200000068C2F200026B
:101B80001160FFF791FE002001B0BDE8F083000076
:101B90004C20C4F2422001210160704740F208004D
:101BA00041F20401C2F20000C4F2020100680968B7
:101BB00044F65412C1F30221C0F60002515CC84041
:101BC0007047000040F2080041F20401C2F2000038
:101BD000C4F202010068096844F65412C1F3C2213C
:101BE000C0F60002515CC8407047000010B541F2D9
:101BF0000804C4F202042068000658BF10BDFFF7B5
:101C0000E7FE8020A07010BD002804BF01207047AF
:101C10002DE9F04182B00446007841F20006C00789
:101C2000C4F202060CD0706800F00C00042840F0EA
:101C300081803068800303D56068002800F0468109
:101C4000207880071BD5706810F00C0F09D07068E1
:101C500000F00C00082840F087807068C00300F195
:101C600083803068800703D52069012840F02E81E9
:101C70003068616920F0F80040EAC10030602078E7
:101C8000000713D4207840072CD4E569002D00F01C
:101C90001881706800F00C00082840F0A780012D22
:101CA00040F00481012002B0BDE8F081A069002865
:101CB00000F084800020C4F242200121C0F880148A
:101CC000FFF7F4FB054600BF706A800700F1B280A1
:101CD000FFF7ECFB401B0228F6D9032002B0BDE859
:101CE000F08100BFF0695FEAC00808D4F06940F0F5
:101CF0008050F061F06900F080500090009847F249
:101D00000007C4F200073868C00549D4386840F4B9
:101D100080703860FFF7CAFB054600BF3868C00511
:101D20003ED4FFF7C3FB401B6428F7D9032002B061
:101D3000BDE8F081706800F00C00082803D17068DD
:101D4000C0033FF576AF61683068002900F00C8170
:101D5000B1F5A02F00F00081B1F5803F40F01A816D
:101D600040F480301CE100BF2069002840F20000F0
:101D7000C4F2422000F0888001210160FFF796FB49
:101D8000054600BF306880073FF572AFFFF78EFB56
:101D9000401B0228F6D9032002B0BDE8F08100BF45
:101DA000E168306A002900F09D80052900F09280EA
:101DB000012940F0AF8040F00100B1E00020C4F202
:101DC00042200021C0F88014FFF770FB054600BFD9
:101DD000706A80077FF556AFFFF768FB401B02284B
:101DE000F6D9032002B0BDE8F08100BF0027C4F29D
:101DF000422700203866FFF759FB022D05460DD11A
:101E00003068800140F1DE80FFF750FB401B022864
:101E10004FF00300F4D902B0BDE8F08130688001D2
:101E20004FD5FFF743FB401B02284FF00300F5D9C5
:101E3000F1E700BF40F20800C2F20000006844F67B
:101E4000D351C1F26201A0FB0101480A019000BF19
:101E500000BF0198411E002801913FF413AF00BF5D
:101E60000198411E002801913FF40CAF00BF01987A
:101E7000411E002801913FF405AF00BF0198411EAB
:101E800000280191E4D1FDE600210160FFF70EFB7F
:101E9000054600BF306880077FF5F1AEFFF706FB0F
:101EA000401B02284FF00300F4D9B4E77068216AA0
:101EB00000F480328A4209D1616A00F470108842CD
:101EC00004D1002002B0BDE8F08100BF012002B0C3
:101ED000BDE8F08140F004003062306A40F001005B
:101EE0001EE000BF20F001003062306A20F00400E4
:101EF0003062FFF7DBFA054641F28837306A800727
:101F000020D5FFF7D3FA401BB8424FF00300F5D9B4
:101F100081E700BF20F001003062306A20F0040049
:101F20003062FFF7C3FA054641F28837306A80070E
:101F300008D4FFF7BBFA401BB842F7D9032002B020
:101F4000BDE8F081B8F1000F3FF59FAEF06920F0D9
:101F50008050F06199E600BF40F480203060306826
:101F600040F480301CE000BF20F4803030603068E6
:101F700020F480203060FFF799FA0546306880032E
:101F80007FF55EAEFFF792FA401B64284FF0030026
:101F9000F4D940E720F480303060306820F48020AD
:101FA0003060FFF783FA0546306880033FF548AE9E
:101FB000FFF77CFA401B6428F6D9032002B0BDE885
:101FC000F08100BF206AB0F5803F05D17168A2683A
:101FD00021F40031114371607168626A21F4741157
:101FE00011430843706001203866FFF75FFA04462A
:101FF000306880013FF565AFFFF758FA001B0228F3
:102000004FF00300F4D906E7411E0020B0EB116F3A
:102010001CBF012070474EF21002CEF20002516048
:102020004EF62351CEF20001F0230B700721906091
:102030001160704790F83C20012A04BF02207047CD
:10204000B0B501F108053CCDD1E900CE23F47C53B5
:1020500022F470521A432EF4F0431A432CF4E04356
:102060001A4324F4C0431A432A43C96922F4804224
:10207000036811435964002180F83C100020B0BD72
:1020800090F83C20012A4FF0020236D010B580F8BB
:102090003D200268D2F804E0D2F808C00C682EF0A7
:1020A0007003234340F2FF74C4F20004A242536061
:1020B0000ADCB2F1804F13D040F20043C4F20003B7
:1020C0009A420DD011E000BF42F60043C4F2010372
:1020D0009A4205D040F60003C4F200039A4204D1AC
:1020E00049682CF08003194391600121002280F897
:1020F0003D1080F83C20BDE81040104670470000BD
:10210000002804BF0120704710B590F83D1031B988
:10211000002180F83C10044600F070F820460221AF
:1021200080F83D10016840F2FF740B68C4F20004AF
:1021300042F6004CA142C4F2010C15DCB1F1804F13
:102140001AD040F20042C4F20002914214D0A142DF
:1021500018DCB1F1804F1DD040F20042C4F2000201
:10216000914217D01AE000BF614505D040F6000249
:10217000C4F200029142EAD1826823F07003134353
:10218000A142E6DD614505D040F60002C4F200023E
:10219000914203D1026923F440731343846923F00D
:1021A0008002D0F804E0C368224361450A60CB6234
:1021B000C1F828E002D14269CCF8302001224A61FE
:1021C0000B69DB0703D00B6923F001030B6180F877
:1021D000462080F83E2080F83F2080F8402080F89C
:1021E000412080F8422080F8432080F8442080F885
:1021F000452080F83D20002010BD000082B000681E
:1022000040F60001C4F20001884215D042F60041B8
:10221000C4F2010188421CD141F21800C4F202004C
:10222000016841F400610160006800F40060019001
:10223000019802B0704700BF41F21800C4F20200DA
:10224000416841F004014160406800F004000090E2
:10225000009802B07047000090F83D1001291CBFA3
:1022600001207047022180F83D10006840F2FF71A4
:10227000C4F20001884209DCB0F1804F12D040F274
:102280000041C4F2000188420CD012E042F6004145
:10229000C4F20101884205D040F60001C4F20001F9
:1022A000884206D1816801F00701062904BF002099
:1022B0007047016841F00101016000207047000093
:1022C00090F83C20012A4FF002026CD080B580F8D3
:1022D0003D20D0F800C04FF67772DCF8083023EAD2
:1022E0000202CCF808200B684F2B29DC1F2B45DDA0
:1022F000202B46D0302B44D0402B40F0AF80D1F87B
:1023000004E0C968DCF82030DCF8202022F001026B
:10231000CCF82020DCF8182022F0F00242EA01116B
:1023200023F00A0242EA0E02CCF81810CCF8202062
:10233000DCF8081041F0470121F0300128E000BF2F
:102340006F2B33DDB3F5005F74D0B3F5805F21D020
:10235000702B40F08380D1E901E3C968DCF80820E4
:1023600043EA0E0322F47F4243EA01211143CCF8F1
:102370000810DCF8081041F0770109E00BB1102BD0
:102380006CD1DCF8081021F07001194341F007010D
:10239000CCF808100022012180F83D10002180F8BF
:1023A0003C10BDE880401046704700BF502B21D044
:1023B000602B53D1D1F804E0C968DCF82030DCF898
:1023C000202022F01002CCF82020DCF8182022F483
:1023D000704242EA013123F0A00242EA0E12CCF828
:1023E0001810CCF82020DCF8081041F0670121F02B
:1023F0001001CDE7D1F804E0C968DCF82030DCF842
:10240000202022F00102CCF82020DCF8182022F055
:10241000F00242EA011123F00A0242EA0E02CCF86D
:102420001810CCF82020DCF8081041F0570121F0FA
:102430002001ADE7D1E901E3C968DCF8082043EAEF
:102440000E0322F47F4243EA01211143CCF8081025
:10245000DCF8081041F480419AE700BF01229AE7B6
:1024600080B586B0014640F60000C4F2010009685C
:1024700000F5105291424FF00001CDE90411CDE971
:10248000021101D006B080BD41F21801C4F2020170
:102490000A6842F004020A60096801F0040101912F
:1024A00001994FF48071029102210391059102A9D3
:1024B000FEF7E8FE06B080BD90F83C30012B04BF6B
:1024C000022070474FEAB202032A00F2F1802DE9A0
:1024D000F043DFE802F003A53B7500BF036842F656
:1024E00000461D6A1A6AC4F2010622F001021A624D
:1024F0001A465C6852F818CFB3428E68D1F800E0F3
:1025000025F0020545EA06050CD1CE68D1E905782B
:1025100024F4407425F00C0526F004063C433543B2
:1025200044EA08042CF0730747EA0E075C609F61D9
:102530004F6809695F631D629F6947F008079F61E3
:102540009F6927F004079F61A6E000BF036842F679
:1025500000461D6A1A6AC4F2010622F480721A62E9
:102560001A46D3F804C052F81CEFB3428E680C68C8
:1025700025F4007545EA06250FD1CE68D1E9059806
:10258000360240F2FF4725F44065BE4335432CF444
:10259000405748EA090647EA061C2EF0730727430E
:1025A000C3F804C0DF614F680969DF631D62DF693A
:1025B00047F00807DF61DF6927F00407DF616BE0A0
:1025C000036842F60047D3F820C01A6AC4F2010734
:1025D00022F480521A621A465C6852F81C5FD1F8E5
:1025E00000E08E68BB4204D14F6924F4804444EA81
:1025F00087142CF4005747EA063725F4E64646EAE6
:102600000E265C60DE614E6809691E641F62DF6928
:1026100047F40067DF61DF6927F48067DF613AE034
:10262000036842F600461D6A1A6AC4F2010622F0E7
:1026300010021A621A46D3F804C052F8184FB34277
:102640008E68D1F800E025F0200545EA06150FD187
:10265000CE68D1E905986FF0400725F0C00507EA7C
:10266000061635432CF4406748EA090647EA860C0B
:1026700024F4E64444EA0E27C3F804C09F614F687F
:1026800009699F631D629F6947F400679F619F69A5
:1026900027F480679F6109021368194311600021C4
:1026A000BDE8F043002280F83C200846704700BF98
:1026B0000121002280F83C2008467047002804BF12
:1026C0000120704710B590F83D1031B9002180F815
:1026D0003C10044600F070F82046022180F83D10BE
:1026E000016840F2FF740B68C4F2000442F6004C2B
:1026F000A142C4F2010C15DCB1F1804F1AD040F2B6
:102700000042C4F20002914214D0A14218DCB1F19F
:10271000804F1DD040F20042C4F20002914217D017
:102720001AE000BF614505D040F60002C4F2000285
:102730009142EAD1826823F070031343A142E6DD9F
:10274000614505D040F60002C4F20002914203D177
:10275000026923F440731343846923F08002D0F8A4
:1027600004E0C368224361450A60CB62C1F828E0F7
:1027700002D14269CCF8302001224A610B69DB07A3
:1027800003D00B6923F001030B6180F8462080F829
:102790003E2080F83F2080F8402080F8412080F8DB
:1027A000422080F8432080F8442080F8452080F8BB
:1027B0003D20002010BD000070470000C1B1042979
:1027C00008D0082914BF41224022825C012A05D08A
:1027D00016E000BF3F22825C012A11D102220829A3
:1027E00010D0042914BF80F8412080F83F200BE06E
:1027F00090F83E20012A03D1022280F83E2003E017
:102800000120704780F84020006801F01F0101227C
:10281000036A8A4023EA02010162036A42F64441E4
:10282000C4F201011A43A1F14403984202620FD09D
:1028300040F2FF71C4F20001884213DCB0F1804F16
:102840001CD040F20041C4F20001884216D01CE0C6
:102850000A6842F400420A6040F2FF71C4F20001CB
:102860008842EBDD42F60041C4F20101884205D006
:1028700040F60001C4F20001884206D1816801F0EF
:102880000701062904BF00207047016841F00101DB
:102890000160002070470000002804BF012070473D
:1028A00010B5044690F8410028B9002084F8400093
:1028B000204600F063F8242084F841002068D4E921
:1028C0000212C36823F40053C360036923F4405326
:1028D0001A430261D4E904231143C268194341F247
:1028E0000C639A431143C1604169A26921F44071AC
:1028F000114343F60002C4F201029042416103D049
:10290000FFF74CF902E000BFFFF75CF9D4E90023C0
:10291000192148439900B0FBF1F048F21F5CC5F261
:10292000EB1CA0FB0C314FF69C734909C0F6FF73FA
:1029300001FB0300322303EB0010A0FB0C03F0208B
:1029400000EA531000EB0110C3F3431108449060F8
:102950001069202120F490401061506920F02A0075
:102960005061D06840F40050D0600020606484F86A
:10297000411084F84210606310BD000070B586B04D
:1029800040F60004C4F20104006804F5405100263A
:1029900088420596CDE90366029601D006B070BD67
:1029A00041F21800C4F20200016802AD41F4804116
:1029B0000160016801F4804101910199016841F0D1
:1029C000040101600068294600F0040001900198AC
:1029D0004FF40070029002200390032005902046DF
:1029E000FEF750FC4FF48060CDE9020620462946F0
:1029F0000496FEF747FC06B070BD00002DE9F043D9
:102A000081B0044690F84200202809D18846002968
:102A10004FF0010018BF002A06D101B0BDE8F083D5
:102A2000022001B0BDE8F083002022211D46606431
:102A300084F8421020631646FEF738FDA685E68529
:102A4000A1680746B1F5805F02D12069002851D006
:102A500046464FF00008E08D00284FD005F10109EF
:102A60000CE000BF406800266FF35F2028F8020BDF
:102A7000E08D0138E085E08D00283FD020680168B6
:102A8000890617D4B9F1000F22D0002D00F0CA80BA
:102A9000FEF70CFDC01BA84200F2BC802068C16894
:102AA000490744BF01685FEA01712FD401688906B4
:102AB000EED500BF002ED5D0A168B1F5805F15D04E
:102AC00009B9216991B1406800F07F000FE000BFB3
:102AD00001688906EED4016889065CBF01685FEA77
:102AE0008161E7D401688906F2D5E3E7406806F81A
:102AF000010BBDE70026E08D0028AFD1002020218A
:102B000084F8421001B0BDE8F08300BF00210091BD
:102B10000168009140680090009800BF206850E86C
:102B2000030F216820F4907041E80302BAB32068D3
:102B300050E8030F216820F4907041E8030272B35B
:102B4000206850E8030F216820F4907041E80302E8
:102B50002AB3206850E8030F216820F4907041E800
:102B60000302002ADAD11AE0206850E8050F216834
:102B700020F0010041E80502DAB1206850E8050FB5
:102B8000216820F0010041E8050292B1206850E878
:102B9000050F216820F0010041E805024AB12068D4
:102BA00050E8050F216820F0010041E80502002AE5
:102BB000DAD1206B012824D1206850E8030F216866
:102BC00020F0100041E80302DAB1206850E8030F5A
:102BD000216820F0100041E8030292B1206850E81B
:102BE000030F216820F0100041E803024AB1206879
:102BF00050E8030F216820F0100041E80302002A8A
:102C0000DAD1202084F8420000200821206361648A
:102C100084F840000320202184F8421001B0BDE870
:102C2000F08300BFFEF742FCF4E700002DE9F0431B
:102C300081B0044690F84100202809D100294FF0C6
:102C4000010018BF002A07D101B0BDE8F08300BF22
:102C5000022001B0BDE8F0830020606421201D4601
:102C60000E4684F841001746FEF720FCA784E7844F
:102C7000A1688146B1F5805F02D1206900285DD04E
:102C800037460020E28C2168002A5DD06A1C24D0DF
:102C9000002D4AD0804600BF0868000608D4FEF721
:102CA00005FCA0EB0900A8427AD82168C868F3E7C0
:102CB00017B117F8010B04E038F8020B00276FF387
:102CC0005F204860E08C0138E084E08C0028E3D18C
:102CD0003AE000BF0A68120609D40A68120606D450
:102CE0000A6812065CBF0A685FEA0262F2D51FB189
:102CF00017F8012B05E000BF30F8022B00276FF317
:102D00005F224A60E28C013AE284E28C002AE4D13C
:102D10001AE000BF30F8022B00276FF35F224A60F1
:102D2000E28C013AE284E28C72B10A68120635D56F
:102D3000002FEFD017F8012BF1E700BF0027304636
:102D4000E28C2168002AA1D1086840061ED42DB368
:102D5000681C14D1086840062AD40868400627D4A5
:102D60000868400624D4086840064FF00000F1D5FA
:102D70000DE000BF2068C1680068400618D4FEF767
:102D800095FBA0EB0900A842F4D909E0002020211E
:102D900084F8411001B0BDE8F08300BFFEF786FB68
:102DA0000320202184F8411001B0BDE8F08300BF6A
:102DB0000020202184F8411001B0BDE8F08300001C
:102DC000FEE7000070B50368044653F8140F40078F
:102DD00011D40E46481C29D086BB00BF1868400598
:102DE00027D4FEF763FB236853F8140F400737D549
:102DF00018684007F2D5002070BD00BF1868400772
:102E0000F9D41868400514D418684007F3D418683A
:102E100040050ED418684007EDD41868400508D462
:102E2000186840074FF0000048BF70BD18684005A3
:102E3000E4D56FF480601860042012E0154603E0CA
:102E400053F8140F4007D6D418684005F1D4FEF7A4
:102E50002DFB401B2368B042F2D958694007EFD4DC
:102E6000202000212022216384F83D2084F83E1098
:102E7000226C10432064012084F83C1070BD0000D7
:102E80002DE9F041054600681E46144601F47F0214
:102E900001338FB242D0DDF81880B2F5803F40F0A8
:102EA000878040693840C01BB0FA80F040098442F6
:102EB00040F0C8804EB924E040693840C01BB0FAE9
:102EC00080F04009844240F0BD80FEF7EFFAA0EBAD
:102ED00008012868B142EFD941693940C91BB1FAEC
:102EE00081F149098C42E7D19BE000BF406938403D
:102EF000C01BB0FA80F0400984424FF0000040F05F
:102F0000A280FEF7D3FA286841693940C91BB1FA9B
:102F100081F149098C42E9D183E000BFB2F5803FDD
:102F200024D100BF41693940C91BB1FA81F1490977
:102F30008C4240F0878041693940C91BB1FA81F168
:102F400049098C4240F07E8041693940C91BB1FA81
:102F500081F149098C4275D141693940C91BB1FAE7
:102F600081F149098C42DDD06CE000BF81693940B4
:102F7000C91BB1FA81F149098C4263D18169394099
:102F8000C91BB1FA81F149098C425BD18169394091
:102F9000C91BB1FA81F149098C4253D18169394089
:102FA000C91BB1FA81F149098C42DFD04AE000BF68
:102FB00080693840C01BB0FA80F04009844241D19A
:102FC00046B923E080693840C01BB0FA80F0400960
:102FD000844237D1FEF76AFAA0EB08012868B142B3
:102FE000F0D981693940C91BB1FA81F149098C4294
:102FF000E8D116E080693840C01BB0FA80F0400983
:1030000084424FF0000018BFBDE8F081FEF74EFA91
:10301000286881693940C91BB1FA81F149098C429C
:10302000E8D100202021286385F83D1085F83E0076
:10303000296C41F02001296485F83C000120BDE89D
:10304000F08100BF0020BDE8F0810000F0B581B044
:10305000044600681D4643698FB203EA0701B9427E
:1030600002D1002001B0F0BD4169164601323CD0CA
:10307000490512D47EB300BFFEF718FA411B206841
:10308000B14203D941693940B9422BD14169394034
:10309000B942E6D041694905EED5016841F40071B5
:1030A00001606FF4806141610420002120222163CE
:1030B00084F83D2084F83E10226C1043206484F88C
:1030C0003C10012001B0F0BD41693940B942C8D07F
:1030D00041694905E1D4FEF7E9F9206841693940C1
:1030E000B942F1D02020E0E741694905D5D44169D2
:1030F0003940B942B5D041694905CED4416939401A
:10310000B942AED041694905C7D441693940B94295
:10311000A7D041694905C0D441693940B942E3D1DA
:103120009FE7000070B50368044653F8140F0006CB
:1031300011D40E46481C29D086BB00BF1868400534
:1031400027D4FEF7B3F9236853F8140F000637D5D8
:1031500018680006F2D5002070BD00BF1868000690
:10316000F9D41868400514D418680006F3D4186818
:1031700040050ED418680006EDD41868400508D440
:10318000186800064FF0000048BF70BD1868400581
:10319000E4D56FF480601860042012E0154603E067
:1031A00053F8140F0006D6D418684005F1D4FEF782
:1031B0007DF9401B2368B042F2D958690006EFD46C
:1031C000202000212022216384F83D2084F83E1035
:1031D000226C10432064012084F83C1070BD000074
:1031E0002DE9F04383B040F60C0040F24414C1F6E0
:1031F0001C00C2F200040290642702AA20464E215D
:1032000004230097FEF70AFA0220FEF719F848F6A1
:103210008C00C0F60C00029002AA20464E21042326
:103220000097FEF7FBF940F27008C2F20008D8F8E8
:10323000200001F063F840F2E009C2F20009024602
:103240000B4665A14846FDF705F899F8000018B34C
:1032500040F24415A9F10104C2F2000502AE00BF1C
:1032600020F00F01000101F10D0209318DF8091064
:1032700000F10D0109308DF808208DF80A108DF845
:103280000B0028464E21324604230097FEF7C6F96C
:10329000A07801340028E3D14CF6CC00C0F60C0035
:1032A000029040F24410C2F2000002AA4E21042310
:1032B0000097FEF7B3F9D8F81000D8F8082050A10D
:1032C0000028484649A308BF1946FCF7C3FF99F8F0
:1032D000000018B340F24414A9F101066427C2F2B9
:1032E000000402AD20F00F01000101F10D020931CF
:1032F0008DF8091000F10D0109308DF808208DF8C6
:103300000A108DF80B0020464E212A460423009710
:10331000FEF784F9B07801360028E3D1D8F8200010
:10332000D8F80850D8F8104000F0E8FF002C40F220
:10333000E004024637A038A7C2F200040B4608BFDB
:10334000074637A12046CDE90075FCF783FF82B21E
:1033500040F2E010C2F2000021466423FFF766FC51
:10336000D8F80C00D8F81810884232D080B140F656
:103370006E5047F2652145F24002C0F20A00C4F6E1
:103380002071C7F26F72C4E90021A0600B2211E026
:10339000002047F2652145F24002207346F2666044
:1033A000C4F62071C7F26F72C0F60D20C4E9002187
:1033B0000C22A06040F2E01040F2E001C2F20000F6
:1033C000C2F200016423FFF731FCD8F80C00C8F802
:1033D000180003B0BDE8F0834E6869657420646F1F
:1033E0003A20252E31662743000000004175746F96
:1033F0003A4F66662020204C763A20256400000073
:103400004175746F3A4F6E202020204C763A20256B
:10341000640000004D616E004175746F0000000093
:1034200023303A252E316627430D0A23313A25737E
:10343000204C763A25640D0A00000000FEE70000EB
:10344000FEF7D4FBFEE70000704700007047000065
:10345000FEF708BA70470000FEE70000B0B582B082
:1034600040F60C0040F24414C3F63C00C2F20004E3
:103470000190642501AA20464E2104230095FEF701
:10348000CDF83220FDF7DCFE40F60C00C2F62C0031
:10349000019001AA20464E2104230095FEF7BEF8B4
:1034A0003220FDF7CDFE40F60C00C6F66C00019010
:1034B00001AA20464E2104230095FEF7AFF83220E2
:1034C000FDF7BEFE40F60C00CCF6CC00019001AA40
:1034D00020464E2104230095FEF7A0F83220FDF788
:1034E000AFFE42F62C00C8F68C00019001AA2046DF
:1034F0004E2104230095FEF791F83220FDF7A0FE3F
:1035000048F68C00C0F60C00019001AA20464E211E
:1035100004230095FEF782F802B0B0BD9AB0FEF722
:10352000AFF900240120CDE90744CDE9054402901C
:1035300006904FF4E0104FF4803102250B9002A862
:10354000CDE90314CDE90951FEF75EFB20B1EFF39D
:10355000108072B6FEE700BF0F20CDE90C054FF4D6
:103560008060CDE90F040CA802210E94FEF732FA18
:1035700020B1EFF3108072B6FEE700BF40F60048BE
:10358000C4F20108FEF704FB002641F21800CDE961
:103590000466CDE90266C4F202000168002241F02F
:1035A00020010160016843F6024701F020010C91FF
:1035B0000C99016841F004010160016801F0040107
:1035C0000C910C99016841F008010160006843F614
:1035D000024100F008000C900C984046FDF760FF97
:1035E0001F2002900020C1F2210002AD03900124AF
:1035F000A8F5806029460494FDF744FE022005905A
:1036000040462946CDE902740496FDF73BFE0620AC
:1036100000210022FEF7A0F90620FEF78BF9072013
:1036200000210022FEF798F90720FEF783F9082011
:1036300000210022FEF790F90820FEF77BF909200F
:1036400000210022FEF788F90920FEF773F90A200D
:1036500000210022FEF780F90A20FEF76BF940F204
:103660004410A8F53841C2F2000048F2A0624FF4BD
:103670008043C0F2010280E84600C0E90363C0E96C
:103680000566C0E90766FDF717FF28B1EFF3108064
:1036900072B600BFFEE700BF40F27005C2F200053F
:1036A00008F50051284640F8281F472140F2E7322C
:1036B0001996CDE91766CDE914660896C0E901169A
:1036C000C0E90326C0E90566FEF71AFD20B1EFF355
:1036D000108072B6FEE700BF4FF4805005F1280657
:1036E000169016A93046FEF7EBFD28B1EFF31080D7
:1036F00072B600BFFEE700BF3046FEF7DFFF28B11D
:10370000EFF3108072B600BFFEE700BF14A9304689
:10371000FEF7B6FC20B1EFF3108072B6FEE700BFF3
:1037200060200C9000270CA930460022CDE90D77CF
:10373000CDE90F77CDE91177FEF7BEFE20B1EFF3AB
:10374000108072B6FEE700BF4FF40050079002A948
:1037500030460697CDE90477CDE902770997FEF761
:1037600069FC28B1EFF3108072B600BFFEE700BF1E
:103770003046FEF775FE40F298100021A8F582321F
:10378000C2F2000047234FF6FE770591CDE9031101
:10379000CDE90C11C0E90023C0E902170161816184
:1037A000FEF7AEFC20B1EFF3108072B6FEE700BF6B
:1037B0004FF48050029040F29810C2F2000002A92B
:1037C000FEF77EFD20B1EFF3108072B6FEE700BF7A
:1037D00040F29810C2F200000CA9FEF751FC18B19B
:1037E000EFF3108072B6FEE740F2E01008F53051BA
:1037F000C2F2000000270C234FF4165280E8860026
:10380000C0E90377C0E90537C761FFF745F818B18C
:10381000EFF3108072B6FEE73046FEF71DFD40F272
:103820009814C2F200042046FEF716FD304600212F
:10383000FEF7C4FFFFF712FE02A841464FF40062F4
:103840002346FDF703FCA86AAF60476340F60C000F
:1038500040F24416C1F61C00C2F200060DF1300918
:103860000C90642430464E214A4604230094FDF710
:10387000D5FE0220FDF7E4FC48F68C00C4F64C00AF
:103880000C900CAA30464E2104230094FDF7C6FE8E
:1038900040F2E00046F25711C2F20000C7F269415F
:1038A0004FF02E32C0E900122E210181471E572011
:1038B00020F00F01000101F10D0209318DF83110E6
:1038C00000F10D0109308DF830208DF832108DF89F
:1038D000330030464E214A4604230094FDF79EFEF5
:1038E000B87801370028E3D14FF47A70FDF7A8FCCF
:1038F000FFF776FCEA6840464FF48061002A18BF63
:103900000122FDF7CDFD2A6940460221002A18BF99
:103910000122FDF7C5FD40F2E01AC2F2000A0DF1E6
:10392000080901E0FFF75CFCFDF7C0FD6968411A7A
:10393000B1F57A7F25D3E968AA696860914207D119
:103940002869E969884203D1A8686969884218D062
:10395000FFF746FCEA6840464FF48061002A18BF32
:103960000122FDF79DFD2A6940460221002A18BF69
:103970000122FDF795FD05F1080207CA05F11403C0
:1039800007C35046294601226423FFF737F8002871
:1039900044D0FDF78BFD696A401AB0F57A7FC3D336
:1039A000FDF784FD68624846FDF75CFB2869029FCD
:1039B00000282F62B6D0E8680028B3D00026C4F2F1
:1039C00010263846314600F04AFD00284FF0030B20
:1039D0003846314618BF4FF0020B00F040FD00267C
:1039E000C4F2F016002840F2E7343846314618BFDA
:1039F00040F29A2400F033FD00283846314618BFC3
:103A00004FF0010B00F02BFD002818BF40F24D14C1
:103A1000A86AC5F808B0446384E700BF2878302856
:103A200018D1E86880F001010128E96028D1A86A6E
:103A30000021A9604163296140464FF48051002272
:103A4000FDF72EFD40464FF400510022FDF728FD02
:103A50009FE700BFE968312806D129B1286980F0C5
:103A60000100286195E700BF2A69322816D1A9B163
:103A7000A2B9A86A0121A96040F24D1126E000BF59
:103A800040464FF480510122FDF70AFD40464FF4B5
:103A900000510122FDF704FD7BE700BF332807D169
:103AA00031B12AB9A86A0221A96040F29A210DE039
:103AB00034287FF46EAF00293FF46BAF002A7FF407
:103AC00068AFA86A0321A96040F2E731416360E76B
:103AD0005FEA400C08BF91F0000F4FEA8C234FEAD9
:103AE000C12243EA51514FEA1C5018BF00F5F04083
:103AF0004FEA300018BF41F000415FEA6C5C00F013
:103B00002980BCF1FF3F08BF40F080407047130C94
:103B100006BF12044FF0100C4FF0000C130E04BF40
:103B200012020CF1080C130F04BF12010CF1040C6B
:103B3000930F04BF92000CF1020CD30F04BF52008C
:103B40000CF1010C11464FF00002A0F11F00A0EB98
:103B50000C00704711F0004F08BF704731F0004172
:103B60003FF4D5AF0B0C06BF09044FF0100C4FF01B
:103B7000000C0B0E04BF09020CF1080C0B0F04BF64
:103B800009010CF1040C8B0F04BF89000CF1020C2D
:103B9000CB0F04BF49000CF1010CCCF1200322FA39
:103BA00003F341EA030102FA0CF2A0EB0C0000F16E
:103BB0000100704723F07F4720F07F4C80EA03002C
:103BC00000F00040ACEB070303F57C5303F1FF0367
:103BD0002DE9804909B44FEA144324EA03484FEA27
:103BE000154B25EA0B4E0FF2042606EB13273E7801
:103BF00003FB0667C7F5000707FB06F64FEAD64644
:103C000006F102064FEA543707FB066CCCF1005C64
:103C10004FEA1C472CEA074C0CFB06F507FB06F4A1
:103C200004EB15464FEA961649085FEA320234BFA4
:103C300000204FF000404FEAD13706FB07FC4FEA67
:103C40001C4C0CFB0BF7D21B03FB0CF761EB0701C1
:103C50000CFB0EF7B0EB074072EB17420CFB08F7BA
:103C600034BFA2EB0742B2EB074261EB17414FEAC8
:103C70000C444FEA910706FB07FC4FEA1C4C0CFB77
:103C80000BF7B0EBC74072EB573203FB0CF734BFB6
:103C9000A2EBC742B2EBC74261EB57310CFB0EF708
:103CA000B0EBC70072EB57720CFB08F734BFA2EB06
:103CB000C702B2EBC70261EB57714FEA816141EA7B
:103CC00092114FEA826242EA90124FEA806004EB5E
:103CD000CC04039F4FEAD13706FB07FC4FEA1C4C8C
:103CE0000CFB0BF7D21B03FB0CF761EB07010CFB82
:103CF0000EF7B0EB074072EB17420CFB08F734BF2E
:103D0000A2EB0742B2EB074261EB17414FEA8C5539
:103D100004EB9C244FEA910706FB07FC4FEA1C4C7E
:103D20000CFB0BF7B0EBC74072EB573203FB0CF701
:103D300034BFA2EBC742B2EBC74261EB57310CFB79
:103D40000EF7B0EBC70072EB57720CFB08F734BFED
:103D5000A2EBC702B2EBC70261EB57714FEA816178
:103D600041EA92114FEA826242EA90124FEA806081
:103D700015EB4C2544F100044FEAD13706FB07FC54
:103D80004FEA1C4C0CFB0BF7D21B03FB0CF761EB4F
:103D900007010CFB0EF7B0EB074072EB17420CFB70
:103DA00008F734BFA2EB0742B2EB074261EB1741C1
:103DB0004FEA813141EA92414FEA823242EA90422F
:103DC0004FEA80304FEA0C7615EB1C1544F10004E5
:103DD00048EA03434EEA0B484FF0000EB2EB080CE2
:103DE00071EB030724BF624639464EEB0E0E4FF0CF
:103DF000000B0018524149414BEB0B0BB2EB080C86
:103E000071EB03077BF1000B24BF624639464EEB92
:103E10000E0E4FF0000B0018524149414BEB0B0BBB
:103E2000B2EB080C71EB03077BF1000B24BF624679
:103E300039464EEB0E0E51EA020718BF46F0010656
:103E400016EB0E7655F1000254F1000103D5BDE8E2
:103E50008901BDE80088BDE88901BDE80048B619C0
:103E6000524141EB0101A3F10103704780807F7E45
:103E70007D7C7B7A797877767675747372717170E0
:103E80006F6E6E6D6C6C6B6A6A6968686766666592
:103E90006464636362616160605F5F5E5E5D5D5C20
:103EA0005C5B5B5A5A595958585757565655555591
:103EB0005454535352525251515050504F4F4F4EF1
:103EC0004E4D4D4D4C4C4C4B4B4B4A4A4A4949493F
:103ED0004848484747474746464645454544444481
:103EE0004443434343424242424141419C46002BAA
:103EF00030D477002BD04FEA37071CB503B44FF00E
:103F000010004FF01001BAF1000F06D0BCF1000F05
:103F1000DCBF40F0080040F008014FF000000FBC8B
:103F2000BDE810400BF1010BBBF1010F08BF5FEAC8
:103F3000170722BF12F1010211F101014FF00041F8
:103F400043F1000300F0004043EA00007047F9D35A
:103F50005708D0E746EA06464FEA164613F1400FE7
:103F60001FDD13F1200FDFBF16430A460021203367
:103F70005B42BED0C3F1200746EA06464FEA16462A
:103F800002FA07F746EA070622FA03F2C3F120070E
:103F900001FA07F742EA070221FA03F14FF00003A2
:103FA000A7E746EA020646EA06464FEA164646EA0A
:103FB0000106BCBF46EA0646360C4FF000034FF040
:103FC00000024FF0000194E72DE9804C70B49A464E
:103FD000934691E8380007C831EA400C48BF34EAFC
:103FE000430C03D5FFF7E6FDFFF780FFF0BCBDE80B
:103FF000008C2DE9804C70B49A46934691E83800C5
:1040000007C810F0804F08BF13F0804F03D100F0B5
:1040100005F8FFF76BFFF0BCBDE8008C20F07F4790
:1040200023F07F4C80EA030000F0004007EB0C0314
:10403000A3F57C53A3F1FE0392F0000F00F0B380D0
:1040400095F0000F00F077802DE901494FEA11400B
:1040500021EA00484FEA144624EA064700FB06FC22
:1040600008FB06F607FB08F818EB06484CEB164C65
:1040700000FB07F718EB07484CEB17404FEA124BD1
:1040800022EA0B4E4FEA154625EA06470BFB06FCD3
:104090000EFB06F607FB0EFE1EEB064E4CEB164C17
:1040A0000BFB07F71EEB074E4CEB174B18EB0B08FF
:1040B00040F1000018EB0E0B58EB000840F1000037
:1040C0008F1A4FF000014FF000063CBFC943661B3A
:1040D00014BFB5EB040C00213CBFC943F61B4FEAEB
:1040E000174427EA04454FEA1C472CEA074C04FB17
:1040F000076205FB07F70CFB05F616EB074642EBDC
:10410000174204FB0CFC16EB0C4642EB1C421BEB6B
:10411000060658EB020241414EEA8E0E46EA9E0622
:1041200001D5BDE80189B619524141EB0101A3F166
:104130000103BDE801894FEA144524EA05464FEA28
:10414000114721EA074C05FB07F406FB07F70CFBB8
:1041500006F111EB074144EB174405FB0CFC11EB96
:104160000C4144EB1C444FEA124722EA074C05FB82
:1041700007F206FB07F70CFB06F616EB074642EBC9
:10418000174205FB0CFC16EB0C4642EB1C456A186B
:1041900054F1000148BF7047B619524141EB01018B
:1041A000A3F10103704795F0000F37D04FEA114299
:1041B00021EA02464FEA144724EA074C02FB07F1C2
:1041C00006FB07F70CFB06F414EB074441EB174121
:1041D00002FB0CFC14EB0C4441EB1C414FEA15476D
:1041E00025EA074C02FB07F506FB07F70CFB06F672
:1041F00016EB074645EB174502FB0CFC16EB0C468D
:1042000045EB1C42121951F1000148BF7047B61925
:10421000524141EB0101A3F1010370474FEA1445FC
:1042200024EA05464FEA114721EA074C05FB07F14E
:1042300006FB07F70CFB06F212EB074241EB1741B6
:1042400005FB0CFC12EB0C4251EB1C414FF000063D
:1042500048BF7047921841EB0101A3F10103704779
:10426000490050EAC12018BF04204A0D18BF40F091
:10427000010040F2FF72B2EB515F08BF40F0020054
:10428000012808BF0520704730380A2801D20120D4
:10429000704700207047000010B500290AD0087848
:1042A000002807D005487844FCF70EFE002801D00E
:1042B000002010BD0248784410BD0000EA0600004E
:1042C000E206000010B500290AD00878002807D0BF
:1042D00005487844FCF7F8FD002801D0002010BD07
:1042E0000248784410BD0000DA060000D206000043
:1042F0000808A0F500114FEA3101704743004FEA6A
:10430000D30C4FEA3C0C43401FBF40070CF16051F7
:1043100013F0FE4F70471CF0006F03D10CF000410A
:10432000002070470CF0004343EA507040EACC0094
:1043300010B500F0D8F900BF000000924FEA00016C
:10434000FFF7D6BF4FF00041A1F500214FF000006C
:104350007047000090EA010F48BF81F0004100F172
:104360001482421A3CBF801A89184FEAD052A2EB3D
:10437000D1534FF07F4C1CEA410F18BF9CEA026FEB
:1043800000F03B804FF0004C4CEA00204CEA012149
:1043900021FA03FC10EB0C0C1ED202F1FF325FEA93
:1043A0001C2040EBC25038BF70471CF07F0F4FEA13
:1043B000400C18BFBCF17F4F38BF7047C3F12003DA
:1043C000994008BF20F00100BCF17F4F38BF704713
:1043D000A0F1C04000F0CDB94FEA3C00000A40EB2C
:1043E000C25028BF1CF0FF0F4FEA400CE6D018BFA8
:1043F000BCF17F4F38BF7047EAE79CEA026F05D0F7
:1044000010EA5C0F08BF00F00040704710B500F0E4
:104410006AF900BF64FBBE3E10B500F033F80CBF74
:104420000120002010BD10B500F02CF814BF0120B1
:10443000002010BD10B500F06DF88CBF01200020E9
:1044400010BD10B500F066F82CBF0120002010BD93
:1044500010B500F093F894BF0120002010BD10B5F6
:1044600000F08CF834BF0120002010BD401058BF70
:10447000C0F14040491058BFC1F140418142EFF3C3
:104480000080704750EA010C00F113801CF5000F0A
:1044900058BFBCF5000F01D48842704707D710F50C
:1044A000000F58BF11F5000F15D48842704789429C
:1044B00070471CF5000F04D5BCF5000FF7D58142FD
:1044C00070474FF0807C1CEB400F38BF1CEB410F56
:1044D00001D28142704710B500F005F992244900DD
:1044E0004FF000504FF08051FFF7C0BFB0FA80F39B
:1044F00010FA03F2C3F19D030AD0D90501EB122093
:10450000530638BF704700F1010008BF20F00100DA
:104510007047000050EA010C00F113801CF5000FF9
:1045200058BFBCF5000F01D48842704707D710F57B
:10453000000F58BF11F5000F15D48842704789420B
:1045400070471CF5000F04D5BCF5000FF7D581426C
:1045500070474FF0807C1CEB400F38BF1CEB410FC5
:1045600001D28142704710B500F0BDF89224490095
:104570004FF080504FF00051FFF778BF50EA010C28
:1045800000F113801CF5000F58BFBCF5000F01D4DB
:104590008842704707D710F5000F58BF11F5000F7C
:1045A00015D488427047894270471CF5000F04D526
:1045B000BCF5000FF7D5814270474FF0807C1CEBB3
:1045C000400F38BF1CEB410F01D28142704710B53C
:1045D00000F089F8922449004FF000504FF08051CC
:1045E000FFF744BF4FF47F0C1CEAD0121EBF1CEA39
:1045F000D11392EA0C0F93EA0C0F00F0478090EA77
:10460000010F48BF42F480724FF0004C4CEA00208A
:104610004CEA012102EB0302A0FB0113A2F5000208
:10462000002918BF43F001035B0028BF4FEA3303A2
:1046300042EB22425FEA132C4CEBC2502EBFBCEB84
:10464000436FB2F57C0F70474FEA036CBCF1004F2B
:1046500008BF20F00100B2F57C0F38BF70470BD5C2
:1046600082F0FF0212F5803FC8BF704700F1C040E2
:10467000D8BF00F00040704700F5000C5FEA4C0C1A
:1046800048BF7047B0F1C04000F073B80CEAD113D6
:1046900090EA010F48BF42F48072624538BF63451B
:1046A00004D280EA010000F00040704710B500F02D
:1046B0001AF800BF8900013E00F007B800F009B801
:1046C0005FEA410C5FEA1C6C08D080EA010000F050
:1046D00050B85FEA400C5FEA1C6CF6D14FF0004026
:1046E000A0F5800070470EF1020E2EF0030E5EF86A
:1046F000044B244204D44FEA4102B2F17F4F11D857
:104700004FEA4003B3F17F4F0CD80ED14FEAD07C73
:104710000CEB4C0C0CF1020CB2F17F4F08BF4CEBD0
:10472000D17C04E04FF0080C01E04FEAD17C0CEBA7
:104730004C0324FA03F404F00704B4F1040C06D289
:104740000EEB840CBDE810404CF0010C6047DFE834
:104750000CF0070802024FF00040A0F5800010BDE9
:104760000846420018BFD2F1807288BF00F00040B6
:1047700010BDFF2141EAD050C005704790EA010FFB
:1047800048BF81F000413FF5ECAD421A04D882F0F9
:104790000042A0EB020011444FEAD052A2EBD153E9
:1047A0004FF07F4C1CEA410F18BF9CEA026F4AD0C1
:1047B0004FF0004C4CEA00204CEA012121FA03FCA6
:1047C000B0EB0C0C0FD412F0FE0F36D05FEA4C00A9
:1047D0001DD5001240EBC25038BF70471CF03F0F90
:1047E00018BF70470BE05FEA1C20A2F1010240EB0A
:1047F000C25038BF70471CF07F0F18BF7047C3F11D
:104800002003994014BF401E20F0010070474FEA7A
:104810001223800808BF7047B0FA80FCA2EB0C029C
:10482000CCF1280C60FA0CF093EA122F04BF00EBD5
:10483000C25070474FEAC3707047130A5FEADC103A
:1048400008BF7047F6E79CEA026F04D010EA5C0FDD
:1048500008BF0020704710B5FFF745FF40DFF63E68
:1048600081F000407047FCF755B8000000000000E0
:1048700000000000303132333435363738394142A8
:1048800043444546403058003031323334353637B2
:10489000383961626364656640307800040000085E
:1048A00000000000000000020001000010000000F5
:1048B00002400000000000A00000000005400000D1
:1048C000000000C8000000000C4000000000409CF8
:1048D00000000000194000000020BCBE00000000E5
:1048E00034400000BFC91B8E00000004B54000002A
:1048F000504BCFD06607E2CF010000006C410000B2
:104900003E8251AADFEEA73401000000D942000028
:10491000DCB5A0E23A301F97FFFFFFFFB44500006F
:10492000FD25A0C8E9A3C14FFFFFFFFFFF3F000027
:104930000000008000000000FF3F00000000008039
:10494000000000000000000000000000010203045D
:104950000607080900000000010203040102020327
:104960000405060708090A0B0C0D0E0F10100000B5
:10497000C04A00080000002010000000500100089C
:10498000D04A000810000020200800007001000834
:104990001C00000043000000F8FFFFFF0C000000B7
:1049A0000E0000000F0000002E00000010010000AB
:1049B00043000000F8FFFFFF0040404040404040FF
:1049C00040404141414141404040404040404040E2
:1049D0004040404040404040400502020202020286
:1049E00002020202020202020220202020202020D5
:1049F00020202002020202020202909090909090E9
:104A000010101010101010101010101010101010A6
:104A1000101010100202020202028888888888881A
:104A20000808080808080808080808080808080806
:104A3000080808080202020240000000000000000E
:104A40000000000000000000000000000000000066
:104A50000000000000000000000000000000000056
:104A60000000000000000000000000000000000046
:104A70000000000000000000000000000000000036
:104A80000000000000000000000000000000000026
:104A90000000000000000000000000000000000016
:104AA0000000000000000000000000000000000006
:104AB00000000000000000000000000000000000F6
:104AC000010000001000000000127A000000000049
:04000005080000ED02
:00000001FF
